:100000000C9452070C9496070C9496070C94960740
:100010000C9496070C9496070C9496070C949607EC
:100020000C9496070C9496070C94AD120C947F13C5
:100030000C9496070C9496070C9496070C949607CC
:100040000C9496070C94872C0C9496070C949607A6
:100050000C9496070C948E220C9496070C94960799
:100060000C9496070C9496070C9496070C9496079C
:100070000C9496070C9496070C9496070C9496078C
:100080000C9496070C9496070C9496070C9496077C
:100090000C9496070C9496070C9496070C9496076C
:1000A0000C9496070C9496070C949607E413061488
:1000B000F1140614F11448146B14F114C014D31481
:1000C000211821184F184F189218CE18CF1ACF1A8E
:1000D000E618CF1ADD19DD19A91ACF1ACF1ABD1AE1
:1000E00029002B002A000100290000001E001B002F
:1000F00018002F000100E0001F0019000C00330061
:100100000100E10020000F000400340001002883FA
:1001100021000600080013000252E20022001A002B
:1001200012001C000000025201004C0000000100FF
:100130000000E30001000100000001000000E300F6
:1001400023000E00160005000000025224000B00E0
:10015000110010000252E20025000A0015003600CE
:1001600001002C832600090017003700010001520E
:100170002700140007000D000100E00001002D0021
:100180001D0001000100000001000100010001004C
:100190000100000001001B0218022F0201000100F3
:1001A000010019020C0233020100010001000F02DC
:1001B00004023402010001000100060208021302D9
:1001C0000100010001001A0212021C0200000100DD
:1001D0000100010000000100000001000100010019
:1001E000000001000000010001000E0216020502DD
:1001F0000000010001000B021102100201000100C9
:1002000001000A0215023602010001000100090284
:1002100017023702010001000100140207020D025B
:100220000100010001002D021D020100010000007B
:100230000100010001000100010000003A0001007E
:100240002D143100010001003B003802240221027C
:10025000010001003C002514241464140100010075
:100260003D00261427143014010001003E00350023
:1002700030022E0200000100010001000000010018
:100280000000010001000100000001000000010069
:100290003F001E022D0230000000010040006400FB
:1002A00025022202010001004100640226021F0211
:1002B0000100010042002702380031020100010064
:1002C00043002302370236020100010044004500CA
:1002D00014140100010000000100010001000100F0
:1002E000010000003A0001004A002900010001005D
:1002F0003B002A0050000100010001003C005200B8
:1003000051000100010001003D004C004F00280099
:10031000010001003E0001004D000100000001004D
:1003200001000100000001000000010001000100C7
:1003300000000100000001003F0001000100010079
:10034000000001004000240021001E0027000100E1
:100350004100250022001F0000000100420026008D
:100360002300200000000100430001003600370098
:1003700001000100440045000100010001000000EF
:100380000A002530313662003A200025303258000C
:100390000A722F63203031323334353637383941E1
:1003A00042434445460A000A002530325800626F35
:1003B000756E6365213A20006C656674207369640C
:1003C000652061747461636865640A006C656674B5
:1003D0002073696465206E6F7420726573706F6E30
:1003E00064696E670A00747279696E6720746F20A1
:1003F0007265736574206D637032333031380A0072
:100400000A44454255473A20656E61626C65642E28
:100410000A005B735D004B6579626F6172642073E3
:10042000746172742E0A005B575D005B535D005B64
:10043000525D005B445D005B435D00160345007246
:100440000067006F0044006F007800200045005AEC
:1004500000000016034500720067006F0044006F43
:10046000007800200045005A000000040309040938
:10047000028D00050100A0FA09040000010301013A
:1004800000092111010001223F0007058103080036
:100490000A09040100010301020009211101000100
:1004A000224D000705820308000A09040200010327
:1004B0000000000921110100012236000705830315
:1004C00008000A09040300020300000009211101C9
:1004D0000001222000070584032000010705040312
:1004E000200001090404000103000000092111019A
:1004F00000012239000705850310000112011001D7
:1005000000000008EDFE07130100010200010501D3
:100510000906A101050719E029E71500250195083D
:1005200075018102050819012905950575019102DA
:10053000950175039101050719002977150025011B
:10054000957875018102C00631FF0974A101097512
:10055000150025FF9520750881020976150025FFF5
:10056000952075089102C005010980A10185021638
:10057000010026B7001A01002AB700751095018105
:1005800000C0050C0901A1018503160100269C028B
:100590001A01002A9C02751095018100C00501090D
:1005A00002A1010901A1000509190129051500256C
:1005B0000195057501810295017503810105010908
:1005C0003009311581257F95027508810609381596
:1005D00081257F950175088106050C0A3802158171
:1005E000257F950175088106C0C005010906A10196
:1005F000050719E029E71500250195087501810215
:1006000095017508810105081901290595057501F0
:1006100091029501750391010507190029FF150045
:1006200025FF950675088100C00A00253032582044
:10063000006B6579626F6172645F7265706F72746E
:100640003A20000A0025303258006B6579626F61EC
:1006500072645F7365745F6C65643A200064656CF6
:100660005F6B65795F6269743A2063616E277420FD
:1006700064656C3A20253032580A006164645F6B0F
:1006800065795F6269743A2063616E2774206164E2
:10069000643A20253032580A00646F6E652E0A00D5
:1006A000626F6F676D61676963207363616E3A2083
:1006B0002E2E2E2000290A002575002F00257500FA
:1006C0005D280025640020002564002000256400CA
:1006D00020002564007C0025303258006D6F757352
:1006E000656B6579205B62746E7C7820792076205A
:1006F000685D287265702F61636C293A205B006D1C
:100700006B5F776865656C5F74696D655F746F5F5B
:100710006D6178203D2025640A006D6B5F77686508
:10072000656C5F6D61785F7370656564203D202541
:10073000640A006D6B5F74696D655F746F5F6D61F6
:1007400078203D2025640A006D6B5F6D61785F73D2
:1007500070656564203D2025640A006D6B5F696EDD
:1007600074657276616C203D2025640A006D6B5FB4
:1007700064656C6179203D2025640A006D6B5F77AC
:100780006865656C5F74696D655F746F5F6D6178D6
:10079000203D2025640A006D6B5F776865656C5F9E
:1007A0006D61785F7370656564203D2025640A0083
:1007B0006D6B5F74696D655F746F5F6D6178203D0F
:1007C0002025640A006D6B5F6D61785F73706565ED
:1007D00064203D2025640A006D6B5F696E7465724C
:1007E00076616C203D2025640A006D6B5F64656C4A
:1007F0006179203D2025640A000A00257500363AFB
:1008000020776865656C5F74696D655F746F5F6D97
:1008100061783A20000A00257500353A207768652E
:10082000656C5F6D61785F73706565643A20000A7E
:1008300000257500343A2074696D655F746F5F6DD3
:1008400061783A20000A00257500333A206D6178FE
:100850005F73706565643A20000A00257500323ABE
:1008600020696E74657276616C286D73293A200078
:100870000A00257500313A2064656C6179282A31B7
:10088000306D73293A20000A092D2056616C756578
:1008900073202D0A004D3E004D25643E20003F0090
:1008A0007365742064656661756C740A00433E204C
:1008B0000077686572652064656C74613A206375C1
:1008C00072736F723D25642C20776865656C3D25D9
:1008D000640A53656520687474703A2F2F656E2E14
:1008E00077696B6970656469612E6F72672F7769CC
:1008F0006B692F4D6F7573655F6B6579730A000ABD
:10090000092D204D6F7573656B6579202D0A455350
:10091000432F713A09717569740A313A0964656C3B
:100920006179282A31306D73290A323A09696E7467
:10093000657276616C286D73290A333A096D6178A6
:100940005F73706565640A343A0974696D655F7434
:100950006F5F6D61780A353A09776865656C5F6D20
:1009600061785F73706565640A363A097768656512
:100970006C5F74696D655F746F5F6D61780A0A7092
:100980003A097072696E742076616C7565730A64D9
:100990003A097365742064656661756C74730A75D1
:1009A000703A092B310A646F776E3A092D310A705B
:1009B0006775703A092B31300A7067646F776E3A49
:1009C000092D31300A0A7370656564203D20646525
:1009D0006C7461202A206D61785F73706565642096
:1009E0002A2028726570656174202F2074696D65F6
:1009F0005F746F5F6D6178290A003F004D3E2000F3
:100A0000433E20004C25640A000A092D20436F6EE6
:100A1000736F6C65202D0A4553432F713A09717528
:100A200069740A6D3A096D6F7573656B65790A00B3
:100A30000A092D204D61676963202D0A643A096413
:100A4000656275670A783A096465627567206D6149
:100A5000747269780A6B3A096465627567206B6520
:100A600079626F6172640A6D3A0964656275672024
:100A70006D6F7573650A763A0976657273696F6E84
:100A80000A733A097374617475730A633A09636F80
:100A90006E736F6C65206D6F64650A302D343A0992
:100AA0006C61796572302D34284631302D463429F9
:100AB0000A506175733A09626F6F746C6F61646597
:100AC000720A653A09656570726F6D0A6E3A094E71
:100AD0004B524F0A7A3A09736C656570204C454455
:100AE00020746573740A000A002575002E6E6B72FF
:100AF0006F3A20000A002575002E737761705F62DF
:100B000061636B736C6173685F6261636B73706167
:100B100063653A20000A002575002E737761705FC7
:100B200067726176655F6573633A20000A00257518
:100B3000002E6E6F5F6775693A20000A0025750008
:100B40002E737761705F72616C745F726775693A5A
:100B500020000A002575002E737761705F6C616C50
:100B6000745F6C6775693A20000A002575002E6372
:100B70006170736C6F636B5F746F5F636F6E7472C1
:100B80006F6C3A20000A002575002E737761705F44
:100B9000636F6E74726F6C5F636170736C6F636BA5
:100BA0003A20000A0025303258006B65796D61707B
:100BB0005F636F6E6669672E7261773A20000A0084
:100BC0002575002E6D6F7573653A20000A00257536
:100BD000002E6B6579626F6172643A20000A00250D
:100BE00075002E6D61747269783A20000A002575CF
:100BF000002E656E61626C653A20000A0025303275
:100C0000580064656275675F636F6E6669672E7210
:100C100061773A20000A0025750064656661756C8D
:100C2000745F6C617965723A20003F004E4B524F01
:100C30003A206F66660A004E4B524F3A206F6E0A9A
:100C40000074696D65725F636F756E743A2025304C
:100C5000346C580A006B6579626F6172645F6E6B09
:100C6000726F3A2025580A006B6579626F61726471
:100C70005F69646C653A2025580A006B6579626F7C
:100C80006172645F70726F746F636F6C3A20255885
:100C90000A00686F73745F6B6579626F6172645F7D
:100CA0006C65647328293A2025580A000A092D200A
:100CB000537461747573202D0A004743433A2034FE
:100CC0002E382E32204156522D4C4942433A203183
:100CD0002E382E30204156525F415243483A20610F
:100CE0007672350A004F5054494F4E533A204C55B6
:100CF000464120424F4F544D41474943204D4F55A7
:100D000053454B45592045585452414B4559204372
:100D10004F4E534F4C4520434F4D4D414E44204E76
:100D20004B524F203531320A004255494C443A204B
:100D300036643362623833202831323A30343A3400
:100D400031204A616E2032322032303136290A0099
:100D50005649443A20307846454544284572676FE5
:100D6000446F7820455A29205049443A2030783140
:100D7000333037284572676F446F7820455A2920F1
:100D80005645523A203078303030310A00444553CD
:100D9000433A20742E6D2E6B2E206B6579626F6145
:100DA0007264206669726D7761726520666F722069
:100DB0004572676F646F780A000A092D20566572C4
:100DC00073696F6E202D0A000A6D6F7573653A2086
:100DD0006F66660A000A6D6F7573653A206F6E0A5A
:100DE000000A6B6579626F6172643A206F66660A09
:100DF000000A6B6579626F6172643A206F6E0A0057
:100E00000A6D61747269783A206F66660A000A6D2D
:100E100061747269783A206F6E0A000A64656275BF
:100E2000673A206F6E0A000A64656275673A206F40
:100E300066660A000A0A626F6F746C6F616465729D
:100E40002E2E2E2000433E20006565636F6E66697E
:100E5000673A0A00536C656570204C454420746500
:100E600073740A0000000000000000000000000190
:100E70000204060A0F17202C3A4A5D71879DB3C7FA
:100E8000DAE9F5FCFFFCF5E9DAC7B39D87715D4A45
:100E90003A2C20170F0A060402010000000000008F
:100EA0000000000011241FBECFEFDAE0DEBFCDBF8F
:100EB00004B603FE24C08091F9019091FA01A0913B
:100EC000FB01B091FC018730904BA740B04BB9F4C7
:100ED0001092F9011092FA011092FB011092FC019C
:100EE00014BE84B7877F84BF88E10FB6F8948093DF
:100EF0006000109260000FBEE0E0FFE3099511E092
:100F0000A0E0B1E0EAEAFCE502C005900D92AA3348
:100F1000B107D9F711E0AAE3B1E001C01D92A93FE2
:100F2000B107E1F70E94E70F0C94532E0C940000D8
:100F3000FF93EF93E0913A01F0913B01309709F074
:100F40000995EF91FF910895FC018591803011F092
:100F5000EFDFFBCF0895FF27E0E230E247FF0CC050
:100F6000419597FF09C0EDE2609570958095909549
:100F7000611D711D811D911D27FF02C0219530E368
:100F800050E2AA27660F771F881F991FAA1FA41770
:100F900010F0A41B63955A95A9F7AA3008F0A95F31
:100FA000A05DAF93F395611571058105910541F73A
:100FB000ED3211F4EF93F395F21718F43F93F39594
:100FC000FBCF8F91B5DFFA95E1F70895E991F9919B
:100FD0008591803021F0853219F0AADFF9CF08958C
:100FE00020E0E89455915532C1F3503311F46894E0
:100FF00055915A3348F4505390F3220F022E220F8A
:10100000220F200D250FF4CF0EF42195899199918F
:10101000533619F3533729F1533559F1BC01882759
:101020009927E8945C3621F48991999168945591B7
:10103000543639F446EF7EF077FF0DC08FEF9FEF07
:101040000AC055374AE039F0583540E121F05236B0
:1010500042E009F00895FF93EF937DDFEF91FF9158
:10106000B7CFFF93EF93FC0181918030B9F360DF3C
:10107000FBCFFF93EF9368DFF1CFDF93CF93CDB733
:10108000DEB72596A3DFCF91DF91089561110BC0E4
:10109000FC018281882321F085EE0E94B51603C0F1
:1010A00085EE0E947D1780E090E00895089560919C
:1010B000BC017091BD018091BE019091BF010E9461
:1010C000922156985E9825982D9826982E982798C4
:1010D0002F98813019F0823021F00895259A2D9AA9
:1010E0000895269A2E9A089587E598E0892B11F0A5
:1010F0000E94570880E090E0089556985E982598E1
:101100002D9826982E9827982F988FEF90E09093FF
:1011100089008093880090938B0080938A0090933D
:101120008D0080938C00259A2D9A2FEF80E792E016
:10113000215080409040E1F700C00000269A2E9A8E
:101140002FEF80E792E0215080409040E1F700C00F
:101150000000279A2F9A2FEF80E792E021508040DD
:101160009040E1F700C0000025982D982FEF80E710
:1011700092E0215080409040E1F700C000002698A6
:101180002E982FEF80E792E0215080409040E1F7C9
:1011900000C0000027982F9856985E9825982D98A3
:1011A00026982E9827982F98089589EA8093800092
:1011B00089E08093810024982C983F988AB18F749D
:1011C0008AB96E98479A8BB1806B8BB9769A0E94D8
:1011D0007D0886E598E0892B11F00E94560880E092
:1011E00090E0089580E28093000180913C0181119C
:1011F0000EC00E94410981E080933C012FEF83EDF6
:1012000090E3215080409040E1F700C0000080E46E
:101210000E9447098093000181112EC00E9471092C
:1012200080930001811128C00E9471098093000100
:10123000811122C08FE30E94710980930001811106
:101240001BC00E94690980E40E9447098093000145
:10125000811112C08CE00E947109809300018111FC
:101260000BC00E94710980930001811105C08FE3BA
:101270000E947109809300010E9469098091000118
:1012800008951092B9008AE08093B800089594EA16
:101290009093BC009091BC0097FFFCCF9091B90057
:1012A000987F983021F0903111F081E0089580937B
:1012B000BB0084E88093BC008091BC0087FFFCCF1A
:1012C0008091B900887F883111F0803471F780E017
:1012D000089584E98093BC008091BC0084FDFCCF1C
:1012E00008958093BB0084E88093BC008091BC008B
:1012F00087FFFCCF9091B900987F81E0983209F484
:1013000080E0089584E88093BC008091BC0087FF52
:10131000FCCF8091BB00089580910001811115C020
:1013200080E40E9447098093000181110CC082E192
:101330000E94710980930001811105C08FEF0E9406
:101340007109809300010E94690984B1807F84B98A
:1013500085B1807F85B98AB1837F8AB98BB1837F5C
:101360008BB93E98469808950E94F2088093000138
:101370000E948C0980B38C7080BB81B3836F81BB6A
:10138000ECE4F1E0AEE3B1E011921D9281E0EA35C8
:10139000F807D1F785ED98E0892B11F00C94D5086A
:1013A00008959F92AF92BF92CF92DF92EF92FF92F9
:1013B0000F931F93CF93DF93809100018823E1F077
:1013C00080913D018F5F80933D01811115C086EEB4
:1013D00093E00E94A4070E94F208809300018823F2
:1013E00029F08CEC93E00E94A40706C088EB93E000
:1013F0000E94A4070E947D080EE311E0C0E0D0E047
:10140000BB24B39482E0A82ECC24C394D12C29EA27
:10141000E22E23E0F22EC73000F580910001811109
:1014200062C080E40E94470980930001811112C0CC
:1014300082E10E9471098093000181110BC0C601F5
:101440000C2E01C0880F0A94EAF780950E9471095A
:10145000809300010E94690946C0CA30A1F028F4B7
:10146000C83059F0C93061F005C0CC3089F070F057
:10147000CD3089F0209A289810C0219A29980DC063
:10148000229A2A980AC0239A2B9807C0529A01C020
:10149000539A5B9802C03E9A4698E0EAEA95F1F7C3
:1014A0008FB1799985C092E081708B25892B7C9BC7
:1014B00002C090E001C094E0892B7D9B02C090E0C7
:1014C00001C098E0892B7E9B02C090E001C090E1B2
:1014D000892B9FB19095991F9927991F9295990FE4
:1014E000907E892B10C080910001811176C080E42C
:1014F0000E94470980930001882309F45BC0912C66
:101500000E946909892DF8019081981739F180832B
:1015100080910101882301F18091D70180FF04C0EF
:101520008EEA93E00E94A4078091D70180FF0CC04F
:10153000809101011F928F93FF92EF920E943D08CC
:101540000F900F900F900F908091D70180FF04C0F3
:1015500087EA93E00E94A407A09201010E948C09EF
:1015600021960F5F1F4FCE30D10509F054CF8091E7
:1015700001018823B1F0815080930101882339F063
:101580008FE99FE00197F1F700C000000AC0ACE4CA
:10159000B1E0EEE3F1E081918D9391E0EC34F90755
:1015A000D1F784E798E0892BD1F00E94740817C026
:1015B00090E07ACF83E10E9471098093000181114C
:1015C0009ECF81E40E94470980930001811197CF4B
:1015D0000E948209982E909493CF80E094CF81E06E
:1015E000DF91CF911F910F91FF90EF90DF90CF90FF
:1015F000BF90AF909F900895E82FF0E0E45BFE4F1E
:1016000080810895CF92DF92EF92FF920F931F9304
:10161000CF93DF9380E993E00E94A4073CE4E32E9C
:1016200031E0F32EC0E0D0E04BE8C42E43E0D42EEE
:1016300002E813E0DF93CF93DF92CF920E943D0840
:1016400088E893E00E94A407F70181917F0190E070
:101650000E94F7219F938F931F930F930E943D0841
:1016600080E893E00E94A40721968DB79EB7089664
:101670000FB6F8949EBF0FBE8DBFCE30D105D1F608
:10168000DF91CF911F910F91FF90EF90DF90CF905E
:1016900008958B3B910578F4883A910540F5853A99
:1016A0009105D0F48430910508F0B1C081309105E6
:1016B00009F4ADC06BC0803E910508F467C0883E58
:1016C000910508F4A4C09C01205F31092031310547
:1016D00008F05CC090650895853A910509F459C0F9
:1016E000863A910509F458C083E890E40895883A51
:1016F000910509F454C0893A910509F453C08A3A16
:10170000910509F452C08B3A910509F451C08C3A05
:10171000910509F450C08D3A910509F44FC0803B02
:10172000910509F44EC08E3A910509F44DC08F3AE7
:10173000910509F44CC0813B910509F44BC0823BF3
:10174000910509F44AC0833B910509F449C0843BE3
:10175000910509F448C0853B910509F447C0863BD3
:10176000910509F446C0873B910509F445C0883BC3
:10177000910509F444C0893B910509F443C08A3BB3
:10178000910509F042C08AE296E4089580E090E075
:10179000089581E890E4089582E890E4089582EE47
:1017A00094E4089589EE94E408958AEE94E408950B
:1017B00085EB94E4089586EB94E4089587EB94E434
:1017C00008958CEC94E408958DEC94E4089583E8F6
:1017D00095E408958AE895E4089582E995E40895EA
:1017E00084E995E4089581E296E4089583E296E41D
:1017F000089584E296E4089585E296E4089586E2E9
:1018000096E4089587E296E4089580E094E40895CC
:10181000089596E0799FF001112494E5899FE00DE9
:10182000F11D1124E60FF11DEE0FFF1FE052FF4FD7
:10183000859194910895880F991F805A9040FC01DA
:10184000859194910895880F991F80529F4FFC01B4
:1018500085919491089526E0729FF001112444E54A
:10186000849FE00DF11D1124E60FF11DEE0FFF1F07
:10187000E052FF4F25913491C9019A9581159F41FE
:1018800010F4C9010895C90190528115904128F4BE
:10189000C9019F700E94230C0895C90190538115BE
:1018A000904120F4C9019927906C0895211580E595
:1018B000380769F40E94F01A9FEF24E34CE091503E
:1018C00020404040E1F700C000000C94B3222130DA
:1018D00080E5380751F480E094E00E94A4078091ED
:1018E000D70181608093D7010895C9019055811572
:1018F000904108F050C0832F99278F70992781302D
:101900009105D9F4A9014370552702C0880F991F8A
:101910004A95E2F79C68A90164E0440F551F6A9557
:10192000E1F744275370842B952B73E0220F331F6C
:101930007A95E1F7207633271DC08230910529F48E
:10194000922F8827816F906A089583309105A9F4BA
:10195000A9014370552781E090E002C0880F991FCC
:101960004A95E2F79C6843E0220F331F4A95E1F75E
:10197000207E3770822B932B08950497F1F4A901F0
:101980004370552781E090E002C0880F991F4A9567
:10199000E2F79A68E8CFC90190578115904120F489
:1019A000C9019F7090620895C901905881159041B6
:1019B00020F4C9019F70906A0895203E3105E0F43B
:1019C000203C310558F52133310509F470C048F445
:1019D0002932310509F464C02A32310509F46EC098
:1019E00074C029333105F1F022383105D9F025339F
:1019F000310509F44EC069C0233E310589F138F440
:101A0000203E3105C1F0223E3105E1F05EC0263EA8
:101A1000310569F1273E3105A9F157C0C9010E947E
:101A20001B0C08958091EA0180FD02C081FF4DC02A
:101A300080EE90E04BC08091EA0180FFF9CF89E30E
:101A400090E044C08091EA0182FF0EC08091EA01DB
:101A500084FF03C080E090E039C083EE90E036C0A0
:101A60008091EA0182FFF2CF82EE90E02FC0809158
:101A7000EA0183FF0BC08091EA0184FDEBCF87EE82
:101A800090E024C08091EA0183FFF5CF86EE90E0DC
:101A90001DC08091EA0185FF07C089E290E016C071
:101AA0008091EA0185FFF9CF85E390E00FC0809136
:101AB000EA0186FF07C08AE290E008C08091EA014F
:101AC00086FFF9CF81E390E001C0C9010E94490B74
:101AD0000895089580916D0108959FB7F89410922C
:101AE0005C019FBF9091F001943009F058C0909133
:101AF000E9009F702091EC0020FF02C020E801C0A7
:101B000020E0292B94E09093E9009091EB0090FF66
:101B100043C09091EE0097FF3FC090915A019923E6
:101B200021F09091E80095FF37C010925A0196E09D
:101B30003091E80035FD15C03091F001343061F589
:101B40003091EB0035FD28C0915021F481E0809365
:101B50005A0122C0EFE9FFE03197F1F700C0000021
:101B6000E7CF8093F1008091E80085FD0AC0809165
:101B7000E80080FFFCCF8091E8008E778093E8003A
:101B800006C08FB7F89491E090935C018FBF2F70DF
:101B90002093E90080E008952F702093E9008FEFF3
:101BA0000895CF93DF9300D01F92CDB7DEB7209179
:101BB000F001243019F523E029839B838A83209345
:101BC000E9008FEF9091E800815095FD06C095EDFA
:101BD0009A95F1F700008111F5CF8091E80085FF1B
:101BE0000DC040E050E063E070E0CE0101960E943D
:101BF000A0108091E8008E778093E8000F900F90FE
:101C00000F90DF91CF910895CF93DF9300D01F9273
:101C1000CDB7DEB72091F001243021F522E02983F1
:101C20009B838A8383E08093E9008FEF9091E800A3
:101C3000815095FD06C095ED9A95F1F70000811150
:101C4000F5CF8091E80085FF0DC040E050E063E0F3
:101C500070E0CE0101960E94A0108091E8008E777E
:101C60008093E8000F900F900F90DF91CF9108952F
:101C70002091F0012430F1F422E02093E9002FEFCD
:101C80003091E800215035FD06C035ED3A95F1F769
:101C900000002111F5CF2091E80025FF0BC040E0A6
:101CA00050E065E070E00E94A0108091E8008E771F
:101CB0008093E8000895CF93DF93EC018091F001C9
:101CC000843009F047C080910C018823E1F08091B5
:101CD0000D018823C1F085E08093E9008FEF90919A
:101CE000E800815095FD06C095E19A95F1F7000056
:101CF0008111F5CF8091E80085FF2CC040E050E0D5
:101D000060E170E017C081E08093E9008FEF90916F
:101D1000E800815095FD06C095ED9A95F1F7000019
:101D20008111F5CF8091E80085FF14C040E050E0BC
:101D300068E070E0CE010E94A0108091E8008E77EC
:101D40008093E80080E1FE01ADE5B1E001900D92E5
:101D50008A95E1F7DF91CF91089587E394E00E949F
:101D6000A4078091EF01811109C00E9432120E94E4
:101D70008F128091E20084608093E200089583E3F3
:101D800094E00E94A4071092EF0108958FE294E07E
:101D90000C94A4078BE294E00E94A4070C94742C8A
:101DA00087E294E00E94A4070E944E220E947A2CAF
:101DB0000E942B150C94690D80915B018F5F8093BD
:101DC0005B0162E30E94E82D911135C010925B0126
:101DD00080915C01882379F18091F001843049F58C
:101DE0008091E9008F709091EC0090FF02C090E824
:101DF00001C090E0982B84E08093E9008091EB0093
:101E000080FF14C08091EE0087FF10C08091E80031
:101E100085FF03C01092F100F9CF8091E80080FFA8
:101E200005C08091E8008E778093E8009F709093C2
:101E3000E90010925C01089542E061EC81E00E94AB
:101E4000AC1142E061EC82E00E94AC1142E061EC36
:101E500083E00E94AC1142E261EC84E00E94AC118C
:101E600042E161EC85E00C94AC118091F201833089
:101E700009F455C030F4813071F0823009F48EC01D
:101E800008958A3009F47AC08B3009F460C0893033
:101E900009F09CC020C08091F101813A09F096C000
:101EA0008091E800877F8093E8008091F501909110
:101EB000F601892B21F060E080E090E003C060E152
:101EC0008DE591E070E00E94E9108091E8008B7749
:101ED0008093E80008958091F101813209F076C085
:101EE0008091F5019091F601009719F0049709F09F
:101EF0006DC08091E800877F8093E8008091E800C2
:101F000082FD05C08091F0018111F8CF5FC0809102
:101F1000F10080936D018091E8008B7753C0809130
:101F2000F101813A09F052C08091F5019091F601DA
:101F3000892B09F04BC08091E800877F8093E800EF
:101F40008091E80080FFFCCF80910C0136C0809129
:101F5000F1018132D9F58091F5019091F601892B3B
:101F6000A9F58091E800877F8093E8000E94E11145
:101F70008091F30180930C010C94F01A8091F1018F
:101F8000813221F58091E800877F8093E8000E94EC
:101F9000E1118091F40180936E0108958091F10127
:101FA000813AA1F48091E800877F8093E8008091D6
:101FB000E80080FFFCCF80916E018093F10080915A
:101FC000E8008E778093E8000C94E111089584B7BF
:101FD000877F84BF88E10FB6F894809360001092E9
:101FE00060000FBE90E080E80FB6F8948093610027
:101FF000909361000FBE0E94B4150E9432120E949D
:102000008F128091E20084608093E2008DE69DE073
:102010000E948D2178940E9409150E94B61582E0D5
:1020200091E00E9426150E94622C86E194E00E94B5
:10203000A4078091F001853089F482E194E00E9448
:10204000A4070E9411228091EE01882391F30E943F
:102050003922882371F30E948A10EBCF0E94E41585
:10206000E8CF292F332723303105A9F06CF4213034
:10207000310509F442C02230310509F043C08DE832
:1020800090E02FE634E042C021323105C9F022321F
:10209000310519F137C099278130910541F082301F
:1020A000910541F0892B71F5EBE6F4E005C0E3E51D
:1020B000F4E002C0EBE3F4E0849190E09F0126C0DD
:1020C000653000F5E62FF0E0EE0FFF1FEB5DFE4FF1
:1020D0002081318189E090E019C0653098F4E62FC5
:1020E000F0E0DF01AA0FBB1FA55EBE4F2D913C9112
:1020F000EA5EFE4F808190E009C082E190E02CEF23
:1021000034E004C080E090E020E030E0FA01318368
:102110002083089580E189BD82E189BD09B400FE74
:10212000FDCF8091D8008F7D8093D8008091E00012
:1021300082608093E0008091E00081FDFCCF0895F3
:10214000CF92DF92EF92FF920F931F93CF93DF9383
:102150007C018B01EA010E940212811131C020979B
:1021600031F088819981081B190BE80EF91EC12CEA
:10217000D12C0115110519F18091E80085FD14C0DD
:102180008091E8008E778093E800209741F0888165
:1021900099818C0D9D1D9983888385E011C00E94D3
:1021A0000212882331F30CC0F70181917F018093E3
:1021B000F10001501109FFEFCF1ADF0ADACF80E0FA
:1021C000DF91CF911F910F91FF90EF90DF90CF9013
:1021D00008952091F7013091F8012617370748F04C
:1021E0006115710539F42091E8002E772093E800FD
:1021F00001C0B901FC0120E061157105B9F18091C0
:10220000F001882309F440C0853009F43FC0809173
:10221000E80083FD3DC08091E80082FF06C0809108
:10222000E80082FF26C080E008958091E80080FFEA
:10223000E3CF2091F3008091F20090E0922B6115A2
:10224000710551F08830910538F421912093F10007
:10225000615071090196F3CF21E0089709F020E061
:102260008091E8008E778093E800C6CF2111C7CF18
:10227000D6CF8091F001882339F0853039F08091F4
:10228000E80083FFCCCF04C082E0089583E0089586
:1022900081E008952091F7013091F8012617370762
:1022A00048F06115710539F42091E8002E772093EC
:1022B000E80001C0B901FC0120E061157105C1F120
:1022C0008091F001882309F441C0853009F440C0B1
:1022D0008091E80083FD3EC08091E80082FF06C047
:1022E0008091E80082FF27C080E008958091E80097
:1022F00080FFE3CF2091F3008091F20090E0922BD9
:102300006115710559F08830910540F424912093AE
:10231000F1003196615071090196F2CF21E00897E2
:1023200009F020E08091E8008E778093E800C5CF27
:102330002111C6CFD5CF8091F001882339F08530A7
:1023400039F08091E80083FFCBCF04C082E008958C
:1023500083E0089581E00895982F973058F5909381
:10236000E900981739F07091EC002091ED00509140
:10237000F00003C0242F762F50E021FF19C03091C8
:10238000EB003E7F3093EB003091ED003D7F3093CA
:10239000ED003091EB0031603093EB007093EC0076
:1023A0002093ED005093F0002091EE0027FF07C02E
:1023B0009F5FD3CF8F708093E90081E0089580E024
:1023C00008958091F10187FD05C08091E80080FFAC
:1023D0000EC012C08091E80082FD05C08091F0011E
:1023E0008111F8CF08958091E8008B7708C0809123
:1023F000F0018111EACF08958091E8008E778093F3
:10240000E80008958091E4009091E50045E6209170
:10241000EC0020FF21C02091E80020FD21C0209188
:10242000F001222389F0253089F02091EB0025FD71
:102430000FC02091E4003091E5002817390739F3E7
:10244000415041F0C901E3CF82E0089583E008954F
:1024500081E0089584E008952091E80022FFDFCF15
:1024600080E008950E94A0120E94A812E0EEF0E021
:10247000808181608083E8EDF0E080818F778083C8
:1024800019BCA7EDB0E08C918E7F8C9380818F7EFC
:1024900080831092EF0108950F931F93CF93DF93E2
:1024A0000E94A0120E94A812C8EDD0E088818F7708
:1024B000888388818068888388818F7D888319BC20
:1024C0001092F0011092EC011092EE011092ED01C9
:1024D00000EE10E0F80180818B7F8083888181602D
:1024E000888342E060E080E00E94AC11E1EEF0E021
:1024F00080818E7F8083E2EEF0E080818160808346
:10250000808188608083F80180818E7F80838881CC
:1025100080618883DF91CF911F910F910895E8ED3D
:10252000F0E080818F7E8083E7EDF0E08081816044
:10253000808384E082BF81E08093EF010C944C1291
:10254000E8EDF0E080818E7F80831092E2000895B4
:102550001092DA001092E10008951F920F920FB6C8
:102560000F9211242F933F934F935F936F937F9319
:102570008F939F93AF93BF93EF93FF938091E1006D
:1025800082FF0BC08091E20082FF07C08091E100D2
:102590008B7F8093E1000E94DC0E8091DA0080FF47
:1025A0001FC08091D80080FF1BC08091DA008E7F11
:1025B0008093DA008091D90080FF0DC080E189BD51
:1025C00082E189BD09B400FEFDCF81E08093F00176
:1025D0000E94AD0E05C019BC1092F0010E94BF0E02
:1025E0008091E10080FF19C08091E20080FF15C05A
:1025F0008091E2008E7F8093E2008091E200806112
:102600008093E2008091D80080628093D80019BC4A
:1026100085E08093F0010E94CA0E8091E10084FF62
:1026200030C08091E20084FF2CC080E189BD82E14E
:1026300089BD09B400FEFDCF8091D8008F7D8093C5
:10264000D8008091E1008F7E8093E1008091E200CC
:102650008F7E8093E2008091E20081608093E200AF
:102660008091EC01882311F084E007C08091E300A1
:1026700087FF02C083E001C081E08093F0010E94E7
:10268000D00E8091E10083FF29C08091E20083FF9A
:1026900025C08091E100877F8093E10082E08093F4
:1026A000F0011092EC018091E1008E7F8093E100B7
:1026B0008091E2008E7F8093E2008091E200806151
:1026C0008093E20042E060E080E00E94AC118091E3
:1026D000F00088608093F0000E94C60EFF91EF9199
:1026E000BF91AF919F918F917F916F915F914F912A
:1026F0003F912F910F900FBE0F901F9018951F9232
:102700000F920FB60F9211242F933F934F935F9325
:102710006F937F938F939F93AF93BF93CF93EF93D9
:10272000FF93C091E900CF708091EC001092E90016
:102730008091F000877F8093F00078940E94BB1313
:102740001092E9008091F00088608093F000C093BF
:10275000E900FF91EF91CF91BF91AF919F918F9140
:102760007F916F915F914F913F912F910F900FBE8D
:102770000F901F9018951F93CF93DF93CDB7DEB7BF
:10278000AA970FB6F894DEBF0FBECDBFE1EFF1E020
:102790008091F100819321E0E93FF207C9F70E949F
:1027A000350F8091E80083FF1CC12091F101309129
:1027B000F201832F90E08A30910508F012C1FC01EC
:1027C000EA5AFF4F0C94082E203881F0223809F085
:1027D00008C18091F5018F708093E9008091EB0032
:1027E00085FB882780F91092E90006C08091ED01F1
:1027F0009091EE01911182609091E800977F909303
:10280000E8008093F1001092F100C5C0822F8D7F07
:1028100009F0E7C0222319F0223061F0E2C0809174
:10282000F301813009F0DDC0333009F080E080939E
:10283000EE0128C08091F301811124C02091F5019F
:102840002F7009F4CEC02093E9008091EB0080FF47
:1028500019C08091EB00333011F4806211C08061A7
:102860008093EB0081E090E0022E01C0880F0A9473
:10287000EAF78093EA001092EA008091EB0088600A
:102880008093EB001092E9008091E800877F86C07A
:102890002111A7C01091F3011F778091E300807888
:1028A000812B8093E3008091E800877F8093E8008C
:1028B0000E94E1118091E80080FFFCCF8091E3004D
:1028C00080688093E300112311F083E001C082E06F
:1028D0008093F00186C02058223008F082C0809199
:1028E000F3019091F4018C3D23E0920779F583E0A8
:1028F0008A838AE289834FB7F894DE01139620E039
:102900003EE051E2E32FF0E050935700E49120FFC6
:1029100003C0E295EF703F5FEF708E2F90E0EA30DA
:1029200010F0C79601C0C0968D939D932F5F243100
:1029300049F74FBF8091E800877F8093E8006AE203
:1029400070E0CE0101960E94E91014C0AE014F5F05
:102950005F4F6091F5010E943110009709F441C06A
:102960002091E800277F2093E800BC0189819A81AB
:102970000E944A118091E8008B778093E80031C073
:10298000203879F58091E800877F8093E800809176
:10299000EC018093F1008091E8008E778093E8004D
:1029A0000E94E1111EC021111CC09091F3019230D0
:1029B000C0F48091E800877F8093E8009093EC0159
:1029C0000E94E1118091EC01811104C08091E3002B
:1029D00087FF02C084E001C081E08093F0010E9483
:1029E0001C0F8091E80083FF0AC08091E800877F78
:1029F0008093E8008091EB0080628093EB00AA96C0
:102A00000FB6F894DEBF0FBECDBFDF91CF911F91FF
:102A10000895CF938091F0018823B1F08091E9006F
:102A20008F709091EC0090FF02C090E801C090E0A0
:102A3000C92FC82B1092E9008091E80083FD0E9405
:102A4000BB13CF70C093E900CF91089590937401A8
:102A5000809373010895E0917301F09174013097B0
:102A600021F00190F081E02D099480E00895FF921B
:102A70000F931F93CF93DF938C01E0917301F0913B
:102A80007401309799F10280F381E02D09958091CE
:102A9000D70182FF2BC080FF04C081E396E00E9433
:102AA000A407E80180E1F82E0BE216E08091D7013F
:102AB00080FF0BC088811F928F931F930F930E94FA
:102AC0003D080F900F900F900F90FA942196F110FF
:102AD000EDCF8091D70180FF09C089E296E0DF91B8
:102AE000CF911F910F91FF900C94A407DF91CF918C
:102AF0001F910F91FF900895E0917301F09174017F
:102B0000309721F00480F581E02D099408952091FB
:102B10007101309172018217930771F090937201E5
:102B200080937101E0917301F0917401309721F06D
:102B30000680F781E02D0994089520916F0130916E
:102B400070018217930771F09093700180936F0169
:102B5000E0917301F0917401309721F00084F185C8
:102B6000E02D0994089508950C94B3150E94502205
:102B70000E94B4090C941623CF93C82F8091D701DB
:102B800082FF1EC080FF04C08AE496E00E94A40772
:102B90008091D70180FF0CC01F92CF9325E436E0CF
:102BA0003F932F930E943D080F900F900F900F902E
:102BB0008091D70180FF04C083E496E00E94A407BF
:102BC0008C2FCF910C94690DCF92DF92EF92FF92F0
:102BD0000F931F93CF93DF93CDB7DEB72B970FB62D
:102BE000F894DEBF0FBECDBF0E94D10936E7E32EB9
:102BF00031E0F32E00E010E0C02E802F0E94FC0A8E
:102C0000F701D1907F01D826B1F40F5F1F4F0E302E
:102C1000110591F78FEF89838A831B820E945922C5
:102C20008160782F9D838C8349815A816B818D814E
:102C30000E94871641C09091D70191FF04C08B87F5
:102C40000E94020B8B8520E030E04D2D50E0922F4A
:102C5000BA01022E02C0759567950A94E2F760FFEB
:102C600025C02E83CF82EE24E394F12C02C0EE0C1B
:102C7000FF1C9A95E2F790E08E219F2121E0892B9D
:102C800009F420E028870E9459228160782F9A87D2
:102C900089874E815F8168858A850E948716F80141
:102CA000EA58FE4F80818E25808306C02F5F3F4FFC
:102CB0002630310561F6A9CF0E9484261091750156
:102CC0000E942B151817A1F00E942B1580937501F7
:102CD0002B960FB6F894DEBF0FBECDBFDF91CF911C
:102CE0001F910F91FF90EF90DF90CF900C94BC1547
:102CF0002B960FB6F894DEBF0FBECDBFDF91CF91FC
:102D00001F910F91FF90EF90DF90CF900895CF9398
:102D1000DF93CDB7DEB72B970FB6F894DEBF0FBEAB
:102D2000CDBF4F83588769877A878B87DE011196DD
:102D300086E0FD0111928A95E9F785E0FE0137965C
:102D400001900D928A95E1F749815A816B817C81CE
:102D50008D819E810E94EC1D2B960FB6F894DEBFEC
:102D60000FBECDBFDF91CF910895CF93C82F882399
:102D700009F4C1C0823859F40E942B1581FDBBC0F3
:102D800089E30E948B200E94672189E30CC083386D
:102D900079F40E942B1580FDAEC083E50E948B2044
:102DA0000E94672183E50E94DC20CF910C9467216B
:102DB000843859F40E942B1582FD9DC087E40E943F
:102DC0008B200E94672187E4EECF8CEF8C0F813A35
:102DD00048F48C2F0E940D2B81118DC08C2F0E94E6
:102DE0008B20E3CF80E28C0F883048F4C77081E0FD
:102DF00001C0880FCA95EAF70E942E21D6CF8BE535
:102E00008C0F833078F4C53A29F0C63A31F482E861
:102E100090E005C081E890E002C083E890E0CF91A7
:102E20000C94871588E58C0F833108F064C0C83A8C
:102E300039F1C93A41F1CA3A49F1CB3A51F1CC3AA8
:102E400059F1CD3A61F1C03B69F1CE3A71F1CF3A17
:102E500079F1C13B81F1C23B89F1C33B91F1C43BA4
:102E600099F1C53BA1F1C63BA9F1C73BB1F1C83B04
:102E7000B9F1C93BC1F1CA3BC9F58AE292E038C059
:102E800082EE90E035C089EE90E032C08AEE90E0AC
:102E90002FC085EB90E02CC086EB90E029C087EB3B
:102EA00090E026C08CEC90E023C08DEC90E020C038
:102EB00083E891E01DC08AE891E01AC082E991E0C0
:102EC00017C084E991E014C081E292E011C083E26E
:102ED00092E00EC084E292E00BC085E292E008C06E
:102EE00086E292E005C087E292E002C080E090E0D6
:102EF000CF910C949D15CF910895882309F44BC070
:102F0000823859F40E942B1581FF45C089E30E9445
:102F10008B200E94672189E30CC0833871F40E94E2
:102F20002B1580FF38C083E50E948B200E9467210B
:102F300083E50E94DC200C946721843859F40E94B8
:102F40002B1582FF28C087E40E948B200E946721F6
:102F500087E4EFCF9CEF980F913A58F390E2980FE7
:102F6000983050F4877091E001C0990F8A95EAF784
:102F7000892F0E943421DFCF9BE5980F933020F4F6
:102F800080E090E00C948715885A833120F480E02B
:102F900090E00C949D150895882321F00E942E2125
:102FA0000C9467210895882321F00E9434210C9409
:102FB00067210895CF92DF92EF92FF920F931F93B4
:102FC000CF93DF93CDB7DEB728970FB6F894DEBF67
:102FD0000FBECDBF8C0185E0F801DE011196019096
:102FE0000D928A95E1F7F80140813181F2802581C7
:102FF00022952F7083819481892B31F03F3F31F4EA
:1030000081E04F3F19F403C081E001C080E080FD02
:10301000C6C249833A8389819A812F830E944920BD
:103020009E8388870E9448200E941B1F4E81E42FA8
:10303000E295EF70F0E0E05AFF4F2F8168850C9425
:10304000082E842F807F142F1F70882311F0129573
:10305000107FFF2059F0112309F456C2812F688791
:103060000E943E210E94672168854EC2862F0E94E1
:103070007D17112309F493C2812F0E9444212896C1
:103080000FB6F894DEBF0FBECDBFDF91CF911F9179
:103090000F91FF90EF90DF90CF900C946721342F29
:1030A000307F842F8F70303211F08295807F6623BD
:1030B00019F0613019F12CC0FF20B1F0222309F47E
:1030C00094C1213009F091C128960FB6F894DEBF63
:1030D0000FBECDBFDF91CF911F910F91FF90EF9069
:1030E000DF90CF900C944E21222319F0213009F467
:1030F00056C28E830E9451218E818AC1FF2021F009
:10310000263008F04CC271C1253008F048C280C199
:10311000FF2021F0222309F468C1F6C1222309F41B
:1031200077C106C2242F26952695237030E02115FD
:10313000310521F021303105C9F031C2FF2021F0E5
:10314000862F942F937002C080E090E028960FB6EF
:10315000F894DEBF0FBECDBFDF91CF911F910F91CD
:10316000FF90EF90DF90CF900C948715FF2021F017
:10317000862F942F937002C080E090E028960FB6BF
:10318000F894DEBF0FBECDBFDF91CF911F910F919D
:10319000FF90EF90DF90CF900C949D15862FFF202D
:1031A00019F00E940A2502C00E94722528960FB6C7
:1031B000F894DEBF0FBECDBFDF91CF911F910F916D
:1031C000FF90EF90DF90CF900C94F725842F8370C1
:1031D00009F076C0F110E3C1262F229526952770BD
:1031E000220F220F862F8F70C82ED12CE12CF12CAC
:1031F000022E04C0CC0CDD1CEE1CFF1C0A94D2F77E
:1032000064FF10C06FE070E080E090E004C0660FE3
:10321000771F881F991F2A95D2F760957095809522
:10322000909503C060E070E0CB01242F2695269591
:103230002370422F50E042305105D1F04330510508
:1032400059F16C297D298E299F294130510541F181
:1032500028960FB6F894DEBF0FBECDBFDF91CF9199
:103260001F910F91FF90EF90DF90CF900C94401F33
:103270006C297D298E299F2928960FB6F894DEBFE8
:103280000FBECDBFDF91CF911F910F91FF90EF90B7
:10329000DF90CF900C945A1F0E94401FC701B601C7
:1032A00028960FB6F894DEBF0FBECDBFDF91CF9149
:1032B0001F910F91FF90EF90DF90CF900C94261FFD
:1032C000FF2019F0842F817001C08695882309F4AE
:1032D00066C1262F229526952770220F220F862F52
:1032E0008F70C82ED12CE12CF12C022E04C0CC0CF6
:1032F000DD1CEE1CFF1C0A94D2F764FF10C06FE0C7
:1033000070E080E090E004C0660F771F881F991F6F
:103310002A95D2F7609570958095909503C060E0EE
:1033200070E0CB01242F269526952370422F50E084
:1033300042305105D1F04330510559F16C297D29B6
:103340008E299F294130510541F128960FB6F894F6
:10335000DEBF0FBECDBFDF91CF911F910F91FF90C8
:10336000EF90DF90CF900C9414206C297D298E294A
:103370009F2928960FB6F894DEBF0FBECDBFDF9110
:10338000CF911F910F91FF90EF90DF90CF900C9411
:103390002E200E941420C701B60128960FB6F8947B
:1033A000DEBF0FBECDBFDF91CF911F910F91FF9078
:1033B000EF90DF90CF900C94FA1F603FC9F118F4A2
:1033C000603E50F49CC0623F09F461C008F44BC0F9
:1033D000633F09F470C093C0162F1F70842F8F7144
:1033E000FF2099F00E94931F812F28960FB6F89422
:1033F000DEBF0FBECDBFDF91CF911F910F91FF9028
:10340000EF90DF90CF900C94CC170E94B41F812FC7
:1034100028960FB6F894DEBF0FBECDBFDF91CF91D7
:103420001F910F91FF90EF90DF90CF900C94D317E6
:10343000FF20A9F0253008F0B2C0842F8F712896A4
:103440000FB6F894DEBF0FBECDBFDF91CF911F91B5
:103450000F91FF90EF90DF90CF900C94D91F263002
:1034600008F09DC0EACFFF20A1F0842F8F7128962D
:103470000FB6F894DEBF0FBECDBFDF91CF911F9185
:103480000F91FF90EF90DF90CF900C94931FFF204F
:1034900061F3842F8F7128960FB6F894DEBF0FBEAC
:1034A000CDBFDF91CF911F910F91FF90EF90DF90F3
:1034B000CF900C94B41FFF2091F0842F8F71289629
:1034C0000FB6F894DEBF0FBECDBFDF91CF911F9135
:1034D0000F91FF90EF90DF90CF900C947E1F289675
:1034E0000FB6F894DEBF0FBECDBFDF91CF911F9115
:1034F0000F91FF90EF90DF90CF900C94741FFF20FE
:10350000A1F0222309F4B1CF862F28960FB6F894A4
:10351000DEBF0FBECDBFDF91CF911F910F91FF9006
:10352000EF90DF90CF900C94B516222309F4B1CF21
:10353000862F28960FB6F894DEBF0FBECDBFDF9161
:10354000CF911F910F91FF90EF90DF90CF900C944F
:103550007D174F70C8010E94460828960FB6F89450
:10356000DEBF0FBECDBFDF91CF911F910F91FF90B6
:10357000EF90DF90CF900C94991E4F70C801289661
:103580000FB6F894DEBF0FBECDBFDF91CF911F9174
:103590000F91FF90EF90DF90CF900C94080C28963D
:1035A0000FB6F894DEBF0FBECDBFDF91CF911F9154
:1035B0000F91FF90EF90DF90CF9008950E944B21E4
:1035C0000E9420210E9467210E9425270E94F72542
:1035D00080E090E00E94871580E090E00C949D15BB
:1035E0000E943B210C94DE1A0E944920292F22952B
:1035F0002F7030E02C3031054CF42A3031056CF45A
:10360000225031092230310590F407C02C303105A9
:1036100051F02F30310539F00AC0803E10F0803F64
:1036200031F481E0089593FB882780F9089580E0C4
:103630000895CF93DF9300D000D01F92CDB7DEB7AF
:103640000F900F900F900F900F90DF91CF910895F2
:10365000CF93DF9300D000D000D0CDB7DEB7269651
:103660000FB6F894DEBF0FBECDBFDF91CF910895A6
:103670001F93CF93DF93C091840116E08091850161
:10368000C81799F0D0E01C9FF0011D9FF00D112488
:10369000EA57FE4F40815181628173818481958117
:1036A0000E94281B2196C770E9CFDF91CF911F910F
:1036B00008954091B6015091B7016091B8017091A1
:1036C000B9018091BA019091BB010C94281B209103
:1036D00084019091850156E02917A9F030E0529FAE
:1036E000F001539FF00D1124EA57FE4F71816713CB
:1036F00006C07081871303C07281471306C02F5F15
:103700003F4F2770E9CF80E0089581E00895CF937F
:103710008091BB0182958F7009F05FC08091B801E4
:10372000882309F45AC020918401A09185016091F9
:10373000B6017091B7018091B9019091BA0131E061
:103740006F3F09F030E0B32FC6E02A1709F445C0F7
:10375000009721F07F3F21F44B2F03C041E001C0CF
:1037600040E030E040FD35C0C29FF001C39FF00D46
:103770001124EA57FE4F418174132BC0408164131A
:1037800028C04281411125C04381548148175907FF
:1037900010F441505109481B590B443F5140C8F4A3
:1037A0008091BB018F7080618093BB0186E0829F16
:1037B000F001839FF00D1124E557FE4F80818F703B
:1037C0008061808386EB91E00E94DA17CF910C94A0
:1037D000381B2F5F3F4F2770B8CFCF910895BF920E
:1037E000CF92DF92EF92FF920F931F93CF93DF93CD
:1037F000CDB7DEB762970FB6F894DEBF0FBECDBF70
:103800008C0185E0F801DE011D9601900D928A95EC
:10381000E1F7D801CC9011965C9111971296BC906B
:1038200012971396ED90FC9014978091B6019091A9
:10383000B7012091B9013091BA012115310531F05C
:103840009F3F31F441E08F3F19F403C041E001C0D4
:1038500040E040FDA3C1D090B801DD2009F427C1AC
:103860004091BB01E216F30640F0F701E21BF30BB7
:103870009F01243F314048F0CBC0209530952E0D5C
:103880003F1D243F314008F0C3C0242F207F09F0A2
:1038900087C0951315C08C1113C0DB2CB11010C05C
:1038A0004F7040614093BB010E94591B86EB91E031
:1038B0000E94DA178091BB01D80115968C937BC1C9
:1038C000E114F10439F05F3F39F481E0BFEFCB122E
:1038D00003C003C081E001C080E080FD03C081E03F
:1038E0008B2501C080E080FF09C04B2D652F8C2DFA
:1038F0005A8B0E94671B5A89811195C0EF2839F0B5
:103900005F3F39F481E0BFEFCB1203C003C081E019
:1039100001C080E080FD03C081E08B2501C080E014
:10392000E82FE170FE2E80FF31C04B2D652F8C2DCE
:103930005A8B0E94671BD82E5A89811127C0CD86C9
:103940005E878D859E850E944920292F22952F70A4
:1039500030E02230310524F02430310534F011C03C
:103960009F7059F0811109C026C19F7031F0D801B4
:1039700015969C91907F09F41EC1805E883008F4F2
:103980001AC1C8010E94DA17DF2C15C1DB2CBB203D
:1039900009F411C18091BB0181608093BB0150C0CB
:1039A000951307C08C1105C0B11003C0F801458301
:1039B000AEC0CD865E878D859E850E94F41A8823D1
:1039C00019F1DB2CBB2001F12091BB01822F8295E4
:1039D0008F7090E002970CF45FC08091B6019091D7
:1039E000B70198878F831986FB86EA862C87CE01DC
:1039F000079650C0951731F1CD865E878D859E85DF
:103A00000E94F41A81112FC0C8010E94DA17A8C0C1
:103A1000242F207F79F77E2DF98AE88A4C2D6B2D93
:103A200089890E94191B86EB91E00E94DA17E6EB68
:103A3000F1E086E0DF011D928A95E9F70E94591BAB
:103A4000D12CB9C08C11D8CFB110D6CFF801458395
:103A5000C8010E94DA17E6EBF1E086E0DF011D9273
:103A60008A95E9F7A8C0DB2CBB2071F22091BB013D
:103A7000822F82958F7090E0029774F08091B6014A
:103A80009091B7019A8389831B82FD82EC822E83F9
:103A9000CE0101960E94DA1786E0F801A6EBB1E0AC
:103AA00001900D928A95E1F70E94871B74C0E2167F
:103AB000F30640F0F701E21BF30B9F01243F314076
:103AC00048F05AC0209530952E0D3F1D243F3140BF
:103AD00008F052C0DB2CBB2009F496CF95132CC004
:103AE0008C112AC08091BB0180FD1DC0982F92953A
:103AF0009F70C9F0D80115968C9315979F3039F0B7
:103B00009F5F9295907F8F70892B15968C93C8013B
:103B10000E94DA1786E0F801A6EBB1E001900D9261
:103B20008A95E1F738C086E0F801A6EBB1E0019094
:103B30000D928A95E1F73FC0CD865E878D859E8583
:103B40000E94F41A882379F086E0F801A6EBB1E030
:103B500001900D928A95E1F70E94871B0E94591BE4
:103B6000DD24D39428C08091BB0181608093BB0188
:103B7000C8010E94DA171FC07E2DF98AE88A4C2DF1
:103B80006B2D89890E94191BE6EBF1E086E0DF01CD
:103B90001D928A95E9F70E94591B0DC0BB2009F4BC
:103BA00033CFCD865E878D859E850E94F41A88234B
:103BB00009F42ACFC9CF8D2D62960FB6F894DEBFD7
:103BC0000FBECDBFDF91CF911F910F91FF90EF906E
:103BD000DF90CF90BF9008951F93CF93DF93CDB721
:103BE000DEB72C970FB6F894DEBF0FBECDBF4F8364
:103BF000588769877A878B879C87CE0107960E94B2
:103C0000EF1B8823C1F02F8138858A859B85892BFE
:103C100031F03F3F11F080E003C02F3FE1F781E03A
:103C2000811147C04F81588569857A858B859C8530
:103C30000E94281B3EC086E0FE013796DE011196E9
:103C400001900D928A95E1F7FF81E8854A855B85B1
:103C50004115510531F0EF3F31F481E0FF3F19F498
:103C600003C081E001C080E080FD23C02091850178
:103C700030E0C9010196877099276091840170E056
:103C800086179707F1F1F983EA835D834C8396E009
:103C9000929FD001939FB00D1124AA57BE4FFE01F1
:103CA000319601900D929A95E1F7809385010E94DB
:103CB000381B16E08091840190918501891779F174
:103CC000189FC00111248A579E4F0E94EF1B882322
:103CD00031F1E09184011E9FF0011124EA57FE4F5B
:103CE0004081518162817381848195810E94281B6A
:103CF0008091840190E001968770992780938401D8
:103D0000D9CF0E94F01A1092850110928401E6EB3F
:103D1000F1E086E0DF011D928A95E9F7CACF2C9683
:103D20000FB6F894DEBF0FBECDBFDF91CF911F91CC
:103D30000895EF92FF920F931F93CF93DF939C010F
:103D4000009709F471C0F12CEE24E394E901219667
:103D5000F9018491843740F4843008F056C08130F2
:103D600081F0823021F160C0853709F449C0C0F18B
:103D70009CE7980F903708F057C08F770E947D1707
:103D800046C089010E5F1F4FFE01849190E2980F9B
:103D9000983050F48770FE2D01C0FF0F8A95EAF726
:103DA0008F2F0E943E2115C00E94B51614C08901B4
:103DB0000E5F1F4FFE01849190E2980F983068F4D7
:103DC0008770FE2D01C0FF0F8A95EAF78F2F0E94A2
:103DD00044210E946721E8011AC00E947D17FBCF91
:103DE0002E5F3F4FFE01C491CC2341F08FE99FE04D
:103DF0000197F1F700C00000C150F6CFE90107C0FC
:103E0000FE01F490E901229602C00E94B5168F2DA2
:103E1000882341F0EFE9FFE03197F1F700C000009F
:103E20008150F6CF9E0192CFDF91CF911F910F91DC
:103E3000FF90EF90089508956093C0017093C101C1
:103E40008093C2019093C3010C94DE1A0F931F93C9
:103E50000091C0011091C1012091C2013091C301B4
:103E6000062B172B282B392B0093C0011093C1016F
:103E70002093C2013093C3011F910F910C94DE1A5D
:103E80000F931F930091C0011091C1012091C201B5
:103E90003091C30106231723282339230093C0013F
:103EA0001093C1012093C2013093C3011F910F9160
:103EB0000C94DE1A0F931F930091C0011091C10161
:103EC0002091C2013091C3010627172728273927DF
:103ED0000093C0011093C1012093C2013093C3012C
:103EE0001F910F910C94DE1A1092BC011092BD012B
:103EF0001092BE011092BF010C94DE1A41E050E016
:103F000060E070E004C0440F551F661F771F8A955C
:103F1000D2F74093BC015093BD016093BE017093F2
:103F2000BF010C94DE1A41E050E060E070E004C094
:103F3000440F551F661F771F8A95D2F78091BC01E9
:103F40009091BD01A091BE01B091BF01842B952B32
:103F5000A62BB72B8093BC019093BD01A093BE010B
:103F6000B093BF010C94DE1A41E050E060E070E0D5
:103F700004C0440F551F661F771F8A95D2F74095DE
:103F80005095609570958091BC019091BD01A09174
:103F9000BE01B091BF0184239523A623B72380934C
:103FA000BC019093BD01A093BE01B093BF010C94DE
:103FB000DE1A41E050E060E070E004C0440F551F9D
:103FC000661F771F8A95D2F78091BC019091BD0141
:103FD000A091BE01B091BF0184279527A627B727DE
:103FE0008093BC019093BD01A093BE01B093BF012B
:103FF0000C94DE1A0F931F930091BC011091BD0128
:104000002091BE013091BF01062B172B282B392B95
:104010000093BC011093BD012093BE013093BF01FA
:104020001F910F910C94DE1A0F931F930091BC0106
:104030001091BD012091BE013091BF0106231723CD
:10404000282339230093BC011093BD012093BE01A6
:104050003093BF011F910F910C94DE1A0F931F93A1
:104060000091BC011091BD012091BE013091BF01B2
:1040700006271727282739270093BC011093BD0175
:104080002093BE013093BF011F910F910C94DE1A53
:104090000895CF92DF92EF92FF920F931F93CF93E9
:1040A000DF93EC01C090C001D090C101E090C2014B
:1040B000F090C3018091BC019091BD01A091BE011F
:1040C000B091BF01C82AD92AEA2AFB2A0FE110E0E1
:1040D000B701A601002E04C07695679557954795C0
:1040E0000A94D2F740FF07C0BE01802F0E942B0C1C
:1040F0008130910539F40150110950F7BE0180E07B
:104100000E942B0CDF91CF911F910F91FF90EF90A8
:10411000DF90CF90089590910C01992361F19091D7
:104120000D01992341F1982F9695969596959F307C
:1041300088F4E0910E01F0910F01E90FF11D8770F5
:1041400021E030E001C0220F8A95EAF78181822BBD
:10415000818308959091D70190FF2DC01F928F9376
:104160008BE796E09F938F930E943D080F900F90EE
:104170000F900F90089540910E0150910F0120E093
:1041800030E09FEFFA01E20FF31F6281681799F0A8
:104190009F3F19F4611101C0922F2F5F3F4F2E30C6
:1041A000310581F79F3F39F0FA01E90FF11D97FDC5
:1041B000FA9582830895089590910C01992369F1ED
:1041C00090910D01992349F1982F96959695969582
:1041D0009F3090F4E0910E01F0910F01E90FF11D75
:1041E000877021E030E001C0220F8A95EAF7209520
:1041F00081812823218308959091D70190FF1FC0CA
:104200001F928F938DE596E09F938F930E943D08B8
:104210000F900F900F900F90089540910E015091C4
:104220000F0120E030E0FA01E20FF31F92819813B2
:1042300001C012822F5F3F4F2E303105A1F7089544
:1042400081E090E0E0910E01F0910F01E80FF91F7D
:104250001082019680319105A9F708959091D601B9
:10426000982B9093D601089580959091D60198232C
:104270009093D60108951092D60108959091D5019A
:10428000982B9093D501089580959091D50198230E
:104290009093D50108951092D50108958093C4019B
:1042A00008951092C401089540910E0150910F019C
:1042B00020E030E080E0FA01E20FF31F91819111DC
:1042C0008F5F2F5F3F4F2F303105A9F70895E091A1
:1042D0000E01F0910F018091D6018083E0910E01D3
:1042E000F0910F0180819091D501892B808390916D
:1042F000C401992361F0E0910E01F0910F018081DA
:10430000892B80830E94542181111092C4018091D5
:104310000E0190910F010C94371590933B018093FF
:104320003A010895CF92DF92EF92FF920F931F937D
:104330006C01EE24FF24C114D104E104F10421F442
:104340006B017C0180E001C080E133272F2D1E2D01
:104350000D2D011511052105310519F0885F680142
:10436000790197018601A4E0369527951795079561
:10437000AA95D1F7011511052105310519F08C5FBA
:104380006801790197018601F2E036952795179526
:104390000795FA95D1F7011511052105310519F099
:1043A0008E5F68017901B701A601769567955795EB
:1043B0004795452B462B472B09F08F5F1F910F9197
:1043C000FF90EF90DF90CF9008958295982F9C7C7E
:1043D00096959695837344E0849F90011124922BC7
:1043E000892F8A7A86959575990F892B08951F9341
:1043F000CF93DF931F92CDB7DEB799830E94E5215B
:10440000182F9981892F0E94E521212F30E0322F2A
:104410002227A901482BCA010F90DF91CF911F914C
:1044200008958091F001843009F11092D80120E4C0
:1044300088E190E00FB6F894A895809360000FBED5
:104440002093600083B7817F846083BF83B78160DE
:1044500083BF7894889583B78E7F83BF88E10FB63A
:10446000F89480936000109260000FBE0895089544
:104470000895CF930E9437220E94D1090E943822CA
:10448000C0E08C2F0E94FC0A811105C0CF5FCE30A6
:10449000C1F780E001C081E0CF9108950C94F01A3B
:1044A00082E084BD93E095BD9AEF97BD80936E0046
:1044B00008952FB7F8948091D9019091DA01A091D5
:1044C000DB01B091DC012FBF0895CF92DF92EF9214
:1044D000FF920F931F932FB7F8944091D9015091F9
:1044E000DA016091DB017091DC012FBF6A017B0171
:1044F000EE24FF248C0120E030E0C016D106E20655
:10450000F30610F441505109481B590BCA011F9181
:104510000F91FF90EF90DF90CF9008951F920F9230
:104520000FB60F9211248F939F93AF93BF938091F7
:10453000D9019091DA01A091DB01B091DC010196E3
:10454000A11DB11D8093D9019093DA01A093DB01E5
:10455000B093DC01BF91AF919F918F910F900FBEEF
:104560000F901F9018950E943212F8942FEF87EA4F
:1045700091E6215080409040E1F700C0000087E0C4
:1045800090EBDC018093F9019093FA01A093FB0179
:10459000B093FC012CE088E190E00FB6F894A89568
:1045A000809360000FBE20936000FFCFEF92FF92D8
:1045B0000F931F93CF93DF93E82EF12C8F2D0E9442
:1045C000FC0AC0E0D0E0082F10E098010C2E02C0D9
:1045D000359527950A94E2F720FD05C02196C6304F
:1045E000D10599F709C06C2F7F2D80E00E94090C3E
:1045F000E812F4CF81E005C0F3948EE0F812DECF2C
:1046000080E0DF91CF911F910F91FF90EF9008957F
:10461000CF93C82F8CE20E94D622882321F08C2FC2
:10462000CF910C94D62280E0CF910895CF930E9431
:104630006324811102C00E94492480EA96E00E940E
:10464000A407C5E6C15049F00E94D1098FE39CE957
:104650000197F1F700C00000F5CF89E996E00E94CC
:10466000A40789E20E940823811111C18AE20E94F5
:10467000082381110E94492485E00E9408238111AA
:104680000E94B3220E946E248093D70187E00E948B
:104690000823882399F18BE10E940823882351F095
:1046A0009091D70191FB882780F921E0822780FB38
:1046B00091F922C08EE00E940823882351F0909146
:1046C000D70192FB882780F921E0822780FB92F9AD
:1046D00013C080E10E9408239091D701882341F004
:1046E00093FB882780F921E0822780FB93F904C09F
:1046F000892F809580FB90F99093D7018091D70105
:104700000E9472240E9480248093EA0180EE0E941D
:104710000823882341F08091EA01982F909590FB1F
:1047200080F98093EA0189E30E940823882359F0E5
:104730009091EA0191FB882780F921E0822780FB94
:1047400091F99093EA0182EE0E940823882359F0A0
:104750009091EA0192FB882780F921E0822780FB73
:1047600092F99093EA0186EE0E940823882359F07B
:104770009091EA0193FB882780F921E0822780FB52
:1047800093F99093EA0183EE0E940823882359F05D
:104790009091EA0194FB882780F921E0822780FB31
:1047A00094F99093EA0185E30E940823882359F045
:1047B0009091EA0195FB882780F921E0822780FB10
:1047C00095F99093EA0181E30E940823882359F028
:1047D0009091EA0196FB882780F921E0822780FBEF
:1047E00096F99093EA0181E10E940823882359F009
:1047F0009091EA0197FB882780F921E0822780FBCE
:1048000097F99093EA018091EA010E9484248091B3
:10481000EA0187FB882780F980930D0187E20E94D7
:104820000823C82F8EE10E9408238111C2608FE106
:104830000E9408238111C46080E20E940823811134
:10484000C86081E20E9408238111C06182E20E9457
:1048500008238111C06283E20E9408238111C06491
:1048600084E20E940823882311F0C06802C0CC2390
:1048700029F08C2F0E947B246C2F03C00E94772488
:10488000682F70E080E090E0CF910C941C1FCF91D6
:1048900008956DEE7EEF80E090E00E943E2E60E095
:1048A00082E090E00E94302E60E083E090E00E9481
:1048B000302E60E084E090E00E94302E60E085E0E1
:1048C00090E00C94302E80E090E00E942A2E21E0AF
:1048D0008D3E9E4F09F020E0822F089582E090E007
:1048E0000C94222E682F82E090E00C94302E83E00E
:1048F00090E00C94222E682F83E090E00C94302EF0
:1049000084E090E00C94222E682F84E090E00C94D8
:10491000302E8091DF0180FF0BC06091130185E094
:10492000689FB001112475956795759567952AC0A4
:1049300081FF09C06091130185E0689FB0011124D7
:10494000759567951FC082FF07C06091130185E0D0
:10495000689FB001112416C04091E0014423C9F0C2
:1049600060911201461788F72091130185E0289F76
:1049700090011124429FC001439F900D112470E0CB
:104980000E94F42D6038710540F46115710539F00D
:1049900002C065E070E0862F08958FE7089581E0FA
:1049A00008958091DF0180FF08C06091110170E0DF
:1049B000759567957595679521C081FF06C06091D3
:1049C000110170E07595679519C082FF04C0609170
:1049D000110170E010C08091E0018823C1F0609166
:1049E00010018617A0F790911101989FC001112422
:1049F00070E00E94F42D6038710528F4611571058E
:104A000021F0862F08958FE7089581E0089561E0F1
:104A100070E0F4CF803F21F40E948924819504C086
:104A2000813F29F40E9489248093E3010895823F05
:104A300021F40E948924819504C0833F29F40E94B7
:104A400089248093E2010895893F19F40E94D124BA
:104A500005C08A3F31F40E94D12481958093E401FE
:104A600008958B3F21F40E94D124819504C08C3F8E
:104A700029F40E94D1248093E5010895843F21F414
:104A80008091E101816017C0853F21F48091E101AF
:104A9000826011C0863F21F48091E10184600BC0E7
:104AA000873F21F48091E101886005C0883F31F49F
:104AB0008091E10180618093E10108958D3F21F4AF
:104AC0008091DF0181600BC08E3F21F48091DF0176
:104AD000826005C08F3F29F48091DF01846080935C
:104AE000DF010895803F39F48091E30187FF6CC0B6
:104AF0001092E30169C0813F29F48091E301181607
:104B0000BCF362C09091E201823F29F497FF5CC040
:104B10001092E20159C0833F19F41916CCF354C026
:104B2000893F41F48091E40118160CF04DC01092B9
:104B3000E4014AC08A3F29F48091E40187FF44C020
:104B4000F6CF8B3F39F48091E50187FF3DC010928D
:104B5000E5013AC08C3F29F48091E5011816BCF3B9
:104B600033C0843F21F48091E1018E7F17C0853FDF
:104B700021F48091E1018D7F11C0863F21F4809165
:104B8000E1018B7F0BC0873F21F48091E101877F9A
:104B900005C0883F31F48091E1018F7E8093E1016F
:104BA00013C08D3F21F48091DF018E7F0BC08E3FBB
:104BB00021F48091DF018D7F05C08F3F29F4809122
:104BC000DF018B7F8093DF018091E20181110EC0B4
:104BD0008091E30181110AC08091E401811106C036
:104BE0008091E501811102C01092E0010895809149
:104BF000D70183FF7EC08CED96E00E94A4078091D0
:104C0000E1011F928F9387ED96E09F938F930E940F
:104C10003D0885ED96E00E94A4072091E201822FD5
:104C2000992787FD90959F932F9382ED96E09F9310
:104C30008F930E943D0880ED96E00E94A40720918A
:104C4000E301822F992787FD90959F932F938DECF9
:104C500096E09F938F930E943D088BEC96E00E9414
:104C6000A4072091E401822F992787FD90959F93B7
:104C70002F9388EC96E09F938F930E943D0886ECDB
:104C800096E00E94A4072091E501822F992787FDD5
:104C900090959F932F9383EC96E09F938F930E9420
:104CA0003D0880EC96E00E94A4078091E0011F92ED
:104CB0008F938DEB96E09F938F930E943D088BEB33
:104CC00096E00E94A4078091DF011F928F9388EBEA
:104CD00096E09F938F930E943D0885EB96E00E949B
:104CE000A4078DB79EB74C960FB6F8949EBF0FBE23
:104CF0008DBF81EE91E00E947C150E945922909315
:104D0000DE018093DD0108951F93CF93DF9380919F
:104D1000DD019091DE010E9465224091E001442373
:104D200021F02091140130E006C0209115015AE0D5
:104D3000259F900111248217930708F482C0809167
:104D4000E2011091E301D091E401C091E5018111EC
:104D500007C0111105C0D11103C0CC2309F471C0E3
:104D60004F3F19F04F5F4093E001181624F40E9462
:104D700089248093E2018091E20187FF05C00E94AF
:104D8000892481958093E201111624F40E948924DC
:104D90008093E3018091E30187FF05C00E9489248D
:104DA00081958093E3016091E201662339F11091CE
:104DB000E301112319F1772767FD7095872F972F4E
:104DC0000E94F92C23E333E343E35FE30E945D2D6C
:104DD0000E94C62C6093E201612F772767FD7095D2
:104DE000872F972F0E94F92C23E333E343E35FE3FC
:104DF0000E945D2D0E94C62C6093E3011D1624F4D1
:104E00000E94D1248093E4018091E40187FF05C0D2
:104E10000E94D12481958093E4011C1624F40E9401
:104E2000D1248093E5018091E50187FF05C00E94B0
:104E3000D12481958093E501DF91CF911F910C944E
:104E4000F725DF91CF911F910895E1EEF1E085E024
:104E5000DF011D928A95E9F71092E0011092DF01BF
:104E600008958FEF98E00E94A4071F9281E08F932E
:104E70001F9285E08F9381EB98E09F938F930E9420
:104E80003D080F900F900F900F900F900F90089586
:104E90008330E9F128F4813061F0823009F108951E
:104EA000853009F462C008F449C0863009F474C042
:104EB000089520911501862F90E0820F911D8F3F5C
:104EC000910520F4620F6093150103C08FEF80936A
:104ED0001501809115011F928F938AEE97E072C0A1
:104EE00020911401862F90E0820F911D8F3F910534
:104EF00020F4620F6093140103C08FEF80931401BC
:104F0000809114011F928F9388ED97E05BC02091F0
:104F10001301862F90E0820F911D8F3F910520F4A1
:104F2000620F6093130103C08FEF80931301809190
:104F300013011F928F9385EC97E044C020911201DA
:104F4000862F90E0820F911D8F3F910520F4620F14
:104F50006093120103C08FEF8093120180911201C0
:104F60001F928F9380EB97E02DC020911101862F27
:104F700090E0820F911D8F3F910520F4620F6093A6
:104F8000110103C08FEF80931101809111011F92D5
:104F90008F9387E997E016C020911001862F90E04B
:104FA000820F911D8F3F910520F4620F60931001D5
:104FB00003C08FEF80931001809110011F928F9397
:104FC0008CE797E09F938F930E943D080F900F907E
:104FD0000F900F900895833081F128F4813059F0BB
:104FE0008230D1F00895853009F449C0B8F1863097
:104FF00009F456C0089580911501681720F4861BA6
:105000008093150102C010921501809115011F9225
:105010008F938DE697E054C080911401681720F4B7
:10502000861B8093140102C0109214018091140118
:105030001F928F938BE597E043C08091130168170F
:1050400020F4861B8093130102C0109213018091FB
:1050500013011F928F9388E497E032C08091120170
:10506000681720F4861B8093120102C0109212016F
:10507000809112011F928F9383E397E021C080916A
:105080001101681720F4861B8093110102C0109251
:105090001101809111011F928F938AE197E010C056
:1050A00080911001681720F4861B8093100102C0C4
:1050B00010921001809110011F928F938FEF96E054
:1050C0009F938F930E943D080F900F900F900F9029
:1050D0000895CF93C82F1F928F9324E03AE03F9317
:1050E0002F930E943D0861E070E080E090E004C0F2
:1050F000660F771F881F991FCA95D2F70E941C1F41
:105100000F900F900F900F90CF910C94F01ACF93B7
:105110008D3109F465C0B0F58E3009F4CBC100F5CE
:10512000873009F49BC1A8F4863009F06AC28091E7
:10513000D701817F8E7F8093D70189E09AE00E941A
:10514000A40785E49EE00E94A40781E08093E70124
:1051500080C1883009F44FC08B3009F47CC151C242
:10516000863109F4EDC138F4803109F4B6C18131DA
:1051700009F42DC246C2893109F4CBC18B3109F43F
:1051800086C13FC2853309F434C248F4873209F43A
:1051900030C208F430C2893209F42BC232C28334DF
:1051A00038F48A3308F029C2883309F454C129C27B
:1051B000833409F41EC2883409F023C20E94F01A15
:1051C00084E39EE00E94A4079FEF23ED80E39150CB
:1051D00020408040E1F700C000000E94B32239C1A6
:1051E00084E59EE00E94A4070E94802C0E942B155B
:1051F0000E94690D2EC189E49EE00E94A4078AE105
:105200009CE00E94A4070E9477241F928F9387E15D
:105210009CE09F938F930E943D0885E19CE00E9453
:10522000A4070E946E24C82F82E09CE00E94A4077D
:105230001F92CF932DEF3BE03F932F930E943D08A9
:105240008BEF9BE00E94A40781EF9BE00E94A407E4
:105250008C2F81701F928F932EEE3BE03F932F9304
:105260000E943D088CEE9BE00E94A40782EE9BE02A
:105270000E94A407C1FB882780F91F928F932FED0E
:105280003BE03F932F930E943D088DED9BE00E94F1
:10529000A40781ED9BE00E94A407C2FB882780F948
:1052A0001F928F932EEC3BE03F932F930E943D087B
:1052B0008CEC9BE00E94A40783EC9BE00E94A40777
:1052C000C3FBCC27C0F91F92CF9380EC9BE09F9348
:1052D0008F930E943D088EEB9BE00E94A4070E94E2
:1052E0008024C82F8AEA9BE00E94A4071F92CF93D4
:1052F00025EA3BE03F932F930E943D0883EA9BE021
:105300000E94A4078AE89BE00E94A4078C2F81706A
:105310001F928F9327E83BE03F932F930E943D0815
:105320008DB79EB780960FB6F8949EBF0FBE8DBF07
:1053300085E89BE00E94A4078EE69BE00E94A407FC
:10534000C1FB882780F91F928F932BE63BE03F93A8
:105350002F930E943D0889E69BE00E94A40787E501
:105360009BE00E94A407C2FB882780F91F928F93BD
:1053700024E53BE03F932F930E943D0882E59BE0AC
:105380000E94A40780E49BE00E94A407C3FB882737
:1053900080F91F928F932DE33BE03F932F930E9460
:1053A0003D088BE39BE00E94A40781E39BE00E9401
:1053B000A407C4FB882780F91F928F932EE23BE05D
:1053C0003F932F930E943D088CE29BE00E94A4072C
:1053D0008AE19BE00E94A407C5FB882780F91F9201
:1053E0008F9327E13BE03F932F930E943D0885E197
:1053F0009BE00E94A40789EF9AE00E94A407C6FBE5
:10540000882780F91F928F9326EF3AE03F932F93DE
:105410000E943D0884EF9AE00E94A4078CEE9AE077
:105420000E94A407C7FBCC27C0F91F92CF9389EE37
:105430009AE09F938F930E943D0887EE9AE00E9426
:10544000A4078DB79EB74C960FB6F8949EBF0FBEBB
:105450008DBFC1E0DBC080E39AE058C08091D701E6
:10546000C82FC17080FF09C087E29EE00E94A40798
:105470008091D701817F8E7F44C08BE19EE00E94A6
:10548000A4078091D70181608093D701E2CF8091FA
:10549000D70181FBCC27C0F991E0C927C0FB81F976
:1054A0008093D701CC2319F08EE09EE025C080E0E8
:1054B0009EE02CC08091D70182FBCC27C0F991E0FF
:1054C000C927C0FB82F98093D701CC2319F081EF63
:1054D0009DE012C081EE9DE019C08091D70183FB51
:1054E000CC27C0F991E0C927C0FB83F98093D7018D
:1054F000CC2351F085ED9DE00E94A4078091D70157
:1055000081608093D70182C088EC9DE00E94A4074F
:10551000A0CF89EB9DE00E94A4078DE89DE00E944A
:10552000A40780E59DE00E94A40789E29DE00E9417
:10553000A40785EE9CE00E94A4078AEB9CE0E6CFDE
:105540008CEA9CE00E94A4070E942B151F928F9367
:1055500082E99CE09F938F930E943D0880910C010B
:105560001F928F938BE79CE09F938F930E943D083F
:1055700080916E011F928F9388E69CE09F938F939A
:105580000E943D0880910D011F928F9385E59CE05C
:105590009F938F930E943D088091D9019091DA01E9
:1055A000A091DB01B091DC01BF93AF939F938F93E8
:1055B00081E49CE09F938F930E943D088DB79EB736
:1055C00046960FB6F8949EBF0FBE8DBF42CF0E9485
:1055D000F01AC0910D0181E0C827C0930D01CC23C2
:1055E00029F087E39CE00E94A40710C08CE29CE0B5
:1055F0008DCF80E003C08D5101C089530E9469287E
:1056000028CF8AE29CE00E94A407C0E08C2FCF91B3
:10561000089580E0089580E00895CF93C82F809189
:10562000E701813081F020F0823009F44CC042C1A2
:10563000A0910E01B0910F018C91813169F08232FD
:1056400009F03AC109C0A0910E01B0910F018C91EF
:10565000813111F0823249F48C2F0E94092B811183
:105660002FC08C2F0E9487282CC08C2F0E940B2BC0
:10567000811126C0C431E1F070F4CB3081F0C0312B
:10568000D1F40E9431278CEF99E00E94A40782E0B8
:105690008093E70115C0C93259F0C83361F489E03D
:1056A0009AE00E94A40780E09AE00E94A40708C044
:1056B0001092E70103C18AEF99E00E94A407FEC09F
:1056C00081E08170FDC0C43220F5CE3108F0C0C049
:1056D000CB3099F1C8F4C73009F0D2C08AE080938A
:1056E000150194E19093140193E09093130180933A
:1056F000120188E08093110188E28093100180EA12
:1057000098E00E94A407BFC0C33149F1C431C1F081
:10571000B7C0CB3409F4A9C028F4C93289F0C83322
:1057200061F0AEC0C13509F49EC0C23509F499C01C
:10573000CE3409F0A5C06AE09EC00E943127A3C004
:105740008091E601882319F01092E6019CC08DEA51
:1057500098E00E94A40781E08093E701B1C087E848
:1057600098E00E94A40785E798E00E94A407809132
:1057700015011F928F9382E798E09F938F930E9469
:105780003D0880E798E00E94A4078EE598E00E941B
:10579000A407809114011F928F938BE598E09F934B
:1057A0008F930E943D0889E598E00E94A4078AE44F
:1057B00098E00E94A407809113011F928F9387E4C1
:1057C00098E09F938F930E943D0885E498E00E94A3
:1057D000A40784E398E00E94A407809112011F921D
:1057E0008F9381E398E09F938F930E943D088FE20F
:1057F00098E00E94A4078AE198E00E94A4078091A3
:1058000011011F928F9387E198E09F938F930E94DD
:105810003D0885E198E00E94A4078EEF97E00E9482
:10582000A407809110011F928F938BEF97E09F93B5
:105830008F930E943D0889EF97E00E94A4078DB7DF
:105840009EB748960FB6F8949EBF0FBE8DBF1BC083
:10585000CE51EC2FF0E0E15DFE4F80818093E601B8
:1058600012C061E003C061E006C06AE08091E60119
:105870000E94482708C08091E6010E94EB2703C0E0
:105880008EE998E013C08091E601882369F01F92A9
:105890008F9388E998E09F938F930E943D080F9023
:1058A0000F900F900F9004C085E998E00E94A40724
:1058B00081E006C01092E70180E002C080E001CFE5
:1058C000CF910895E1E8F0E0808188608083808155
:1058D000816080838FB7F89493E09093890090ED76
:1058E000909388008FBF0895EFE6F0E0808182609A
:1058F00080830895EFE6F0E080818D7F80830895B6
:10590000EFE6F0E0808192E08927808308951F927E
:105910000F920FB60F9211242F933F934F935F93E3
:105920006F937F938F939F93AF93BF93EF93FF9367
:105930008091E8019091E90101969093E9018093AB
:10594000E801811103C082E00E94690DE091E90144
:10595000E695E695F0E0EC59F14FE4918091E8018D
:105960008E1303C080E00E94690DFF91EF91BF91FB
:10597000AF919F918F917F916F915F914F913F91E7
:105980002F910F900FBE0F901F90189504D0689420
:10599000B1118DC0089570D088F09F5790F0B92F45
:1059A0009927B751A0F0D1F0660F771F881F991F74
:1059B0001AF0BA95C9F712C0B13081F077D0B1E0D2
:1059C000089574C0672F782F8827B85F39F0B93FE2
:1059D000CCF3869577956795B395D9F73EF4909576
:1059E0008095709561957F4F8F4F9F4F0895E894F4
:1059F00009C097FB3EF490958095709561957F4F17
:105A00008F4F9F4F9923A9F0F92F96E9BB279395C4
:105A1000F695879577956795B795F111F8CFFAF4D4
:105A2000BB0F11F460FF1BC06F5F7F4F8F4F9F4F05
:105A300016C0882311F096E911C0772321F09EE863
:105A4000872F762F05C0662371F096E8862F70E0C9
:105A500060E02AF09A95660F771F881FDAF7880FA3
:105A60009695879597F9089557FD9058440F551FBF
:105A700059F05F3F71F04795880F97FB991F61F0D0
:105A80009F3F79F087950895121613061406551F47
:105A9000F2CF4695F1DF08C0161617061806991FB3
:105AA000F1CF86957105610508940895E894BB27A8
:105AB00066277727CB0197F908950BD078C069D076
:105AC00028F06ED018F0952309F05AC05FC0112459
:105AD000EECFCADFA0F3959FD1F3950F50E0551F8D
